:10000000020286C100022300000225000002210036
:10001000004B010001000001000000000000000092
:100020000203E302039ABB010689828A83E022501D
:1000300002E722BBFE02E32289828A83E49322BB89
:10004000010CE58229F582E5833AF583E02250062A
:10005000E92582F8E622BBFE06E92582F8E222E5E0
:100060008229F582E5833AF583E49322BB01068970
:10007000828A83F0225002F722BBFE01F322F8BBF2
:10008000010DE58229F582E5833AF583E8F02250F7
:1000900006E92582C8F622BBFE05E92582C8F222C0
:1000A000EF8DF0A4A8F0CF8CF0A428CE8DF0A42E74
:1000B000FE22BB0110E58229F582E5833AF583E053
:1000C000F5F0A3E0225009E92582F886F008E6223F
:1000D000BBFE0AE92582F8E2F5F008E222E5832A70
:1000E000F583E993F5F0A3E99322BB010DC58229BD
:1000F000C582C5833AC5830201845011C58229F89F
:1001000008E5F026F618F5F0E58236F622BBFE117A
:10011000C58229F808E225F0F5F0F218E23582F2FE
:1001200022F8E58229F582E5832AF5837401932577
:10013000F0F5F0E4933822F8BB0111E58229F5824D
:10014000E5833AF583E8F0E5F0A3F0225009E925CC
:1001500082C8F608A6F022BBFE09E92582C8F2E5AE
:10016000F008F222BB010789828A830201A35005AD
:10017000E9F802019ABBFE05E9F80201AC89828A1E
:10018000830201B5C5F0F8A3E028F0C5F0F8E582D8
:10019000158270021583E038F022E6FB08E6FA08C3
:1001A000E6F922E0FBA3E0FAA3E0F922E2FB08E291
:1001B000FA08E2F922E493FB740193FA740293F9CA
:1001C00022E4F508F509F50AF50BF50CF50D120416
:1001D000CD75CAFFE4F5C9F508748A2508F582E4EF
:1001E0003401F58374FFF074BA2508F582E4340114
:1001F000F58374FFF00508E508B430DD7BFF7A0471
:1002000079F71204E4E4F50875110175120175130C
:10021000BA7514007515307B017A01798A120427AA
:100220007F057E001204A71205118E0C8F0DE4F5D8
:100230000AF50BC3E50B950DE50A950C50CA7B003A
:100240007A007909120468D3EF64809480402D7499
:100250008A2508F582E43401F583E509F074BA25AE
:1002600008F582E43401F583E509F00508E508C3E3
:1002700094304003E4F508AF09120504050BE50BC3
:1002800070B1050A80AD787FE4F6D8FD758126024D
:1002900002CD0201C1E493A3F8E493A34003F680E6
:1002A00001F208DFF48029E493A3F85407240CC872
:1002B000C333C4540F4420C8834004F4568001461D
:1002C000F6DFE4800B010204081020408090000358
:1002D000E47E019360BCA3FF543F30E509541FFE48
:1002E000E493A360010ECF54C025E060A840B8E4B9
:1002F00093A3FAE493A3F8E493A3C8C582C8CAC53C
:1003000083CAF0A3C8C582C8CAC583CADFE9DEE7CD
:1003100080BE851F82851E8312003FFFAB1BAA1C77
:10032000A91D851F82851E8312003FFEE4FDC2AF1A
:10033000EF30E70AEE30E706D2CCD2CD8047EF208F
:10034000E719EE30E715D2CCD2CD0000C2CD0000C7
:1003500000000000000000C2CC8030EF30E719EE52
:1003600020E715D2CCD2CD0000C2CC0000000000A6
:1003700000000000C2CD8013D2CCD2CD000000001E
:1003800000000000000000C2CCC2CDEF25E0FFEE6F
:1003900025E0FED2AF0DBD089522C0E0C0F0C083BD
:1003A000C082C0D075D000C000C001C002C003C070
:1003B00004C005C006C007309904C299C200309835
:1003C00007C298AF99120020D007D006D005D004FC
:1003D000D003D002D001D000D0D0D082D083D0F0D2
:1003E000D0E032C3E524947FE52394005036C3E582
:1003F000239400402F740B2522F58274013521F5DA
:1004000083EFF00524E524700205230522E5227020
:10041000020521C3947FE52194004005E4F521F510
:10042000227F01227FFF228B0E8A0F8910E4F516AE
:10043000F517C3E5179515E5146480F8E516648093
:1004400098502285111B85121C85131D85161E854B
:10045000171FAB0EAA0FA9101203120517E517708C
:10046000D1051680CD02050CD3E5249400E5239434
:10047000004031740B2526F58274013525F583E0A3
:1004800012006CE5241524700215230526E526705C
:10049000020525C3947FE52594004005E4F525F584
:1004A000267F01227FFF22E4FDFCC3ED9FEE6480E6
:1004B000F8EC6480985015E4FBFA0BBB00010AEBE2
:1004C00064904A70F50DBD00010C80DE22759850D5
:1004D000438E01438E0475D7C675D6FF438E10D266
:1004E000ACD2AF22120026FF600C12050474012961
:1004F000F9E43AFA80EE2273746172742075702008
:100500002E2E2E002000FDD2008F9922C2CCC2CD0B
:0605100022AE23AF2422FD
:00000001FF
