:1000AA00851B82851A83120140FFAB17AA18A9196A
:1000BA00851B82851A83120140FEE4FDEF30E70CAE
:1000CA00EE30E708C2AFD2CCD2CD8053EF20E71F83
:1000DA00EE30E71BC2AFD2CCD2CD0000C2CD0000B9
:1000EA00000000000000000000C2CCD2AF8038EF50
:1000FA0030E71BEE20E717C2AFD2CCD2CD0000C248
:10010A00CC00000000000000000000008015C2AF13
:10011A00D2CCD2CD00000000000000000000000098
:10012A0000C2CCC2CDD2AFEF25E0FFEE25E0FE0D36
:05013A00ED6408708770
:01013F00229D
:05024C00C2CCC2CD226E
:10021A00E4FDFCC3ED9FEE6480F8EC648098501511
:10022A00E4FBFA0BBB00010AEB64904A70F50DBDC2
:05023A0000010C80DE54
:01023F00229C
:0901E200E4F50FF510F511FDFC28
:0601EB008B0A8A0B890C4F
:1001F100E4AE04AF05FC7D0312018F8F828E83E58F
:100201000F12016D8F828E83A3E51012016D8F8213
:090211008E83A3A3E51102016D27
:0601A1008B0A8A0B890C99
:1001A700E4F512F513C3E5139511E5106480F8E53E
:1001B700126480985022850D17850E18850F1985B2
:1001C700121A85131BAB0AAA0BA90C1200AA051356
:0B01D700E51370D1051280CD02024C30
:10000300E4F508F50975CAFFF5C9F5087400250874
:10001300F582E43400F58374FFF074182508F58243
:10002300E43400F58374FFF00508E508B430DD7BA4
:10003300017A0079001201E27A007918E4F50FF5EC
:1000430010F5117D01FC1201EB0508E5097B017A2E
:1000530000790060121201E2750FFF7510FF751130
:10006300FF7D017C008019750FFF7510FF7511FF6F
:10007300E4FDFC1201EBE4F50FF510F5117D01FC35
:100083001201EB6309FF750D01750E00750F1875ED
:1000930010007511187B017A0079001201A17F0508
:0700A3007E0012021A80A288
:03000000020240B9
:0C024000787FE4F6D8FD75811B020003F6
:10014000BB010CE58229F582E5833AF583E0225074
:1001500006E92582F8E622BBFE06E92582F8E222BE
:0D016000E58229F582E5833AF583E49322D8
:10016D00F8BB010DE58229F582E5833AF583E8F0C8
:10017D00225006E92582C8F622BBFE05E92582C874
:02018D00F2225C
:10018F00EF8DF0A4A8F0CF8CF0A428CE8DF0A42E84
:02019F00FE223E
:00000001FF
