:1002840000FFFFFF00FFFFFF00FFFFFF000000FF74
:10029400000000FF000000FF00000000000000005C
:1002A400000000000000000000000000000000004A
:1002B400000000000000000000000000000000003A
:1002C400000000000000000000000000000000002A
:0A02D4000000000000000000000020
:0803D0007F027E33DEFEDFFC3C
:0103D8002202
:0D039D00C2AFD29000000000C290D2AF228B
:10038200C2AFD29000000000000000000000000098
:0B039200000000000000C290D2AF226B
:0A02DE008B0F8A1089118C128D130A
:1002E800E4FFFEC3EF9513EE95125033AB0FAA103F
:1002F800A9118F828E831200F9FDE4FBFAED30E735
:100308000512039D8003120382ED25E0FD0BBB005F
:0F031800010AEB64084A70E50FBF00010E80C4B4
:0103270022B3
:0503D900C2900203D0F8
:0C03AA007F5F7EFF7DAEDDFEDEFCDFFA33
:0103B6002224
:0C03B7007F0A7E807DDADDFEDEFCDFFACE
:0103C3002217
:060328008B0F8A10891101
:10032E00E4AE04AF05FC7D031201488F828E83E597
:10033E00151201268F828E83A3E5141201268F8259
:09034E008E83A3A3E5160201262B
:0A015A008B088A09890A8C0B8D0CB2
:10016400E4F50DF50EC3E50E950CE50B6480F8E59A
:100174000D648098505BE50E9400E50D64809480D6
:10018400401CAB08AA09A90AE50E24FFFDE50D34BD
:10019400FFFC7514FF7515FF7516FF120328AB08D5
:1001A400AA09A90AE4F5147515FF7516FFAD0EAC7E
:1001B4000D1203281203D9AB08AA09A90A7D5A7C97
:1001C400001202DE1203B7050EE50E7098050D80CD
:1001D40094AB08AA09A90A7514FF7515FF7516FFD3
:1001E400E4FDFC120328AB08AA09A90A7514FF75DB
:1001F40015FF7516FF7D017C00120328AB08AA09C0
:10020400A90A7514FF7515FF7516FF7D027C00128F
:100214000328AB08AA09A90A7514FF7515FF7516FA
:10022400FF7D037C00120328AB08AA09A90A7514F0
:10023400FF7515FF7516FF7D047C00120328AB08BB
:10024400AA09A90A7514FF7515FF7516FF7D057CAB
:1002540000120328AB08AA09A90A7514FF7515FF33
:100264007516FF7D067C00120328AB08AA09A90AAB
:100274007514FF7515FF7516FF7D077C00020328B2
:1003570078007C007D017BFF7A0279847E007F5ADA
:100367001200D37592FFE4F5911203AA7B017A007C
:0B03770079007D1E7C0012015A80F10D
:030000000203C434
:0C03C400787FE4F6D8FD7581160203571F
:10000300E709F608DFFA8046E709F208DFFA803EDF
:1000130088828C83E709F0A3DFFA8032E309F608CC
:10002300DFFA8078E309F208DFFA807088828C8334
:10003300E309F0A3DFFA806489828A83E0A3F608E8
:10004300DFFA805889828A83E0A3F208DFFA804CC2
:1000530080D280FA80C680D4806980F28033801099
:1000630080A680EA809A80A880DA80E280CA803302
:1000730089828A83ECFAE493A3C8C582C8CCC5837A
:10008300CCF0A3C8C582C8CCC583CCDFE9DEE7804A
:100093000D89828A83E493A3F608DFF9ECFAA9F0C9
:1000A300EDFB2289828A83ECFAE0A3C8C582C8CC1F
:1000B300C583CCF0A3C8C582C8CCC583CCDFEADE38
:1000C300E880DB89828A83E493A3F208DFF980CC9A
:1000D30088F0EF60010E4E60C388F0ED2402B40493
:1000E3000050B9F582EB2402B4040050AF2323453A
:0600F3008223900053730C
:1000F900BB010CE58229F582E5833AF583E02250BC
:1001090006E92582F8E622BBFE06E92582F8E22205
:0D011900E58229F582E5833AF583E493221F
:10012600F8BB010DE58229F582E5833AF583E8F00F
:10013600225006E92582C8F622BBFE05E92582C8BB
:02014600F222A3
:10014800EF8DF0A4A8F0CF8CF0A428CE8DF0A42ECB
:02015800FE2285
:00000001FF
