:10024300851B82851A831202D3FFAB17AA18A9193B
:10025300851B82851A831202D3FEE4FDEF30E70C7F
:10026300EE30E708C2AFD2CCD2CD804DEF20E71DF0
:10027300EE30E719C2AFD2CCD2CD0000C2CD000020
:1002830000000000000000C2CCD2AF8034EF30E7A2
:1002930019EE20E715C2AFD2CCD2CD0000C2CC00FC
:1002A30000000000000000008013C2AFD2CCD2CD0A
:1002B3000000000000000000000000C2CCC2CDD24C
:0F02C300AFEF25E0FFEE25E0FE0DED6408708D36
:0102D2002209
:0503E000C2CCC2CD22D9
:1003AE00E4FDFCC3ED9FEE6480F8EC64809850157C
:1003BE00E4FBFA0BBB00010AEB64904A70F50DBD2D
:0503CE0000010C80DEBF
:0103D3002207
:0A037500E4F50FF510F5117D01FC11
:06037F008B0A8A0B890CB9
:10038500E4AE04AF05FC7D031203228F828E83E564
:100395000F1203008F828E83A3E5101203008F8254
:0903A5008E83A3A3E511020300FD
:060334008B0A8A0B890C04
:10033A00E4F512F513C3E5139511E5106480F8E5A9
:10034A00126480985022850D17850E18850F19851D
:10035A00121A85131BAB0AAA0BA90C120243051326
:0B036A00E51370D1051280CD0203E006
:10000300E4F508F50975CAFFF5C9F5087400250874
:10001300F582E43400F58374FFF074302508F5822B
:10002300E43400F58374FFF00508E508B430DD7BA4
:10003300017A007900E4F50FF510F511FDFC1203C8
:100043007F7A0079301203750508E5097B017A0090
:1000530079007003020141E4F50FF510F511FDFC81
:1000630012037F750FFF7510FF7511FF7D017C0073
:1000730012037FE4F50FF510F5117D02FC12037FE7
:10008300750FFF7510FF7511FF7D037C0012037F51
:10009300E4F50FF510F5117D04FC12037F750FFFD6
:1000A3007510FF7511FF7D057C0012037FE4F50FCA
:1000B300F510F5117D06FC12037F750FFF7510FF18
:1000C3007511FF7D077C0012037FE4F50FF510F532
:1000D300117D08FC12037F750FFF7510FF7511FF6B
:1000E3007D097C0012037FE4F50FF510F5117D0AFD
:1000F300FC12037F750FFF7510FF7511FF7D0B7CDD
:100103000012037FE4F50FF510F5117D0CFC1203CB
:100113007F750FFF7510FF7511FF7D0D7C001203B6
:100123007FE4F50FF510F5117D0EFC12037F750FBB
:10013300FF7510FF7511FF7D0F7C0002021B750F09
:10014300FF7510FF7511FFE4FDFC12037F120375A9
:10015300750FFF7510FF7511FF7D027C0012037F81
:10016300E4F50FF510F5117D03FC12037F750FFF06
:100173007510FF7511FF7D047C0012037FE4F50FFA
:10018300F510F5117D05FC12037F750FFF7510FF48
:100193007511FF7D067C0012037FE4F50FF510F562
:1001A300117D07FC12037F750FFF7510FF7511FF9B
:1001B3007D087C0012037FE4F50FF510F5117D092E
:1001C300FC12037F750FFF7510FF7511FF7D0A7C0D
:1001D3000012037FE4F50FF510F5117D0BFC1203FC
:1001E3007F750FFF7510FF7511FF7D0C7C001203E7
:1001F3007FE4F50FF510F5117D0DFC12037F750FEC
:10020300FF7510FF7511FF7D0E7C0012037FE4F56F
:100213000FF510F5117D0FFC12037F6309FF750DB8
:1002230001750E00750F307510007511307B017A62
:100233000079001203347F057E001203AE02004BE7
:030000000203D424
:0C03D400787FE4F6D8FD75811B02000361
:1002D300BB010CE58229F582E5833AF583E02250E0
:1002E30006E92582F8E622BBFE06E92582F8E2222A
:0D02F300E58229F582E5833AF583E4932244
:10030000F8BB010DE58229F582E5833AF583E8F033
:10031000225006E92582C8F622BBFE05E92582C8DF
:02032000F222C7
:10032200EF8DF0A4A8F0CF8CF0A428CE8DF0A42EEF
:02033200FE22A9
:00000001FF
