:10022A0000000000FFFFFFFF0000FFFF00000000CA
:10023A0000000000000000000000000000000000B4
:10024A0000000000000000000000000000000000A4
:0B02D000C2AFD2CD0000C2CDD2AF22E1
:1002AF00C2AFD2CD0000000000000000000000002F
:0502BF00C2CDD2AF2208
:0A01E8008B108A1189128C138D14FC
:1001F200E4FFFEC3EF9514EE9513502BAB10AA113A
:10020200A9128F828E831200F9FDE4FCED30E7051E
:100212001202D080031202AFED25E0FD0CBC08EC07
:070222000FBF00010E80CCAC
:0102290022B2
:0302DB00C2CD226F
:10028900E4FDFCC3ED9FEE6480F8EC6480985015A2
:10029900E4FBFA0BBB00010AEB64904A70F50DBD53
:0502A90000010C80DEE5
:0102AE00222D
:06025A008B098A0A890BE2
:10026000E4AE04AF05FC7D031201488F828E83E566
:100270000E1201268F828E83A3E50F1201268F8234
:090280008E83A3A3E51002012600
:0A01A3008B098A0A890B8C0C8D0D64
:1001AD00E4F50EF50FC3E50F950DE50C6480F8E54C
:1001BD000E6480985022AE0CAF0D7C007D031201B1
:1001CD0048AC06AD07AB09AA0AA90B1201E8050F49
:0B01DD00E50F70D1050E80CD0202DBA3
:10015A0078007C007D017BFF7A02792A7E007F305D
:10016A001200D3E4F50875CAFFF5C905087B017AC0
:10017A00007900E508540FFD7C00E508F404F50E4B
:10018A0085080F85081012025A7D107C001201A3FF
:09019A007F057E0012028980D26B
:030000000202C435
:0C02C400787FE4F6D8FD75811402015A21
:10000300E709F608DFFA8046E709F208DFFA803EDF
:1000130088828C83E709F0A3DFFA8032E309F608CC
:10002300DFFA8078E309F208DFFA807088828C8334
:10003300E309F0A3DFFA806489828A83E0A3F608E8
:10004300DFFA805889828A83E0A3F208DFFA804CC2
:1000530080D280FA80C680D4806980F28033801099
:1000630080A680EA809A80A880DA80E280CA803302
:1000730089828A83ECFAE493A3C8C582C8CCC5837A
:10008300CCF0A3C8C582C8CCC583CCDFE9DEE7804A
:100093000D89828A83E493A3F608DFF9ECFAA9F0C9
:1000A300EDFB2289828A83ECFAE0A3C8C582C8CC1F
:1000B300C583CCF0A3C8C582C8CCC583CCDFEADE38
:1000C300E880DB89828A83E493A3F208DFF980CC9A
:1000D30088F0EF60010E4E60C388F0ED2402B40493
:1000E3000050B9F582EB2402B4040050AF2323453A
:0600F3008223900053730C
:1000F900BB010CE58229F582E5833AF583E02250BC
:1001090006E92582F8E622BBFE06E92582F8E22205
:0D011900E58229F582E5833AF583E493221F
:10012600F8BB010DE58229F582E5833AF583E8F00F
:10013600225006E92582C8F622BBFE05E92582C8BB
:02014600F222A3
:10014800EF8DF0A4A8F0CF8CF0A428CE8DF0A42ECB
:02015800FE2285
:00000001FF
