:10000000020286C100022300000225000002210036
:10001000004B010001000001000000000000000092
:1000200002042402039ABB010689828A83E02250DB
:1000300002E722BBFE02E32289828A83E49322BB89
:10004000010CE58229F582E5833AF583E02250062A
:10005000E92582F8E622BBFE06E92582F8E222E5E0
:100060008229F582E5833AF583E49322BB01068970
:10007000828A83F0225002F722BBFE01F322F8BBF2
:10008000010DE58229F582E5833AF583E8F02250F7
:1000900006E92582C8F622BBFE05E92582C8F222C0
:1000A000EF8DF0A4A8F0CF8CF0A428CE8DF0A42E74
:1000B000FE22BB0110E58229F582E5833AF583E053
:1000C000F5F0A3E0225009E92582F886F008E6223F
:1000D000BBFE0AE92582F8E2F5F008E222E5832A70
:1000E000F583E993F5F0A3E99322BB010DC58229BD
:1000F000C582C5833AC5830201845011C58229F89F
:1001000008E5F026F618F5F0E58236F622BBFE117A
:10011000C58229F808E225F0F5F0F218E23582F2FE
:1001200022F8E58229F582E5832AF5837401932577
:10013000F0F5F0E4933822F8BB0111E58229F5824D
:10014000E5833AF583E8F0E5F0A3F0225009E925CC
:1001500082C8F608A6F022BBFE09E92582C8F2E5AE
:10016000F008F222BB010789828A830201A35005AD
:10017000E9F802019ABBFE05E9F80201AC89828A1E
:10018000830201B5C5F0F8A3E028F0C5F0F8E582D8
:10019000158270021583E038F022E6FB08E6FA08C3
:1001A000E6F922E0FBA3E0FAA3E0F922E2FB08E291
:1001B000FA08E2F922E493FB740193FA740293F9CA
:1001C00022E4F508F509F50AF50BF50CF50D120416
:1001D000C575CAFFE4F5C9F508740B2508F582E476
:1001E0003402F58374FFF0743B2508F582E4340291
:1001F000F58374FFF00508E508B430DD7BFF7A0471
:1002000079EF1204DCE4F50875110175120275131B
:100210003B7514007515307B017A02790B1203E3EC
:100220007F057E0012049F1205098E0C8F0DE4F5E8
:100230000AF50BC3E50B950DE50A950C50CA7B003A
:100240007A007909120462D3EF64809480402D749F
:100250000B2508F582E43402F583E509F0743B25AB
:1002600008F582E43402F583E509F00508E508C3E2
:1002700094304003E4F508AF091204FC050BE50BCC
:1002800070B1050A80AD787FE4F6D8FD758126024D
:1002900002CD0201C1E493A3F8E493A34003F680E6
:1002A00001F208DFF48029E493A3F85407240CC872
:1002B000C333C4540F4420C8834004F4568001461D
:1002C000F6DFE4800B010204081020408090000358
:1002D000E47E019360BCA3FF543F30E509541FFE48
:1002E000E493A360010ECF54C025E060A840B8E4B9
:1002F00093A3FAE493A3F8E493A3C8C582C8CAC53C
:1003000083CAF0A3C8C582C8CAC583CADFE9DEE7CD
:1003100080BE851F82851E8312003FFFAB1BAA1C77
:10032000A91D851F82851E8312003FFEE4FDC2AF1A
:10033000EF30E70AEE30E706D2CCD2CD8047EF208F
:10034000E719EE30E715D2CCD2CD0000C2CD0000C7
:1003500000000000000000C2CC8030EF30E719EE52
:1003600020E715D2CCD2CD0000C2CC0000000000A6
:1003700000000000C2CD8013D2CCD2CD000000001E
:1003800000000000000000C2CCC2CDEF25E0FFEE6F
:1003900025E0FED2AF0DBD089522C0E0C0F0C083BD
:1003A000C082C0D075D000C000C001C002C003C070
:1003B00004C005C006C007309904C299C200309835
:1003C00007C298AF99120020D007D006D005D004FC
:1003D000D003D002D001D000D0D0D082D083D0F0D2
:1003E000D0E0328B0E8A0F8910E4F516F517C3E5BD
:1003F000179515E5146480F8E516648098502285F9
:10040000111B85121C85131D85161E85171FAB0E2B
:10041000AA0FA9101203120517E51770D10516804F
:10042000CD020504C3E52394015034C3E5239400B1
:10043000402D740B2522F58274013521F583EFF0F0
:100440000524E524700205230522E522700205211A
:10045000C3E52194014005E4F521F5227F01227FC7
:10046000FF22D3E5249400E5239400402F740B254C
:1004700026F58274013525F583E012006CE524151C
:1004800024700215230526E52670020525C3E525FF
:1004900094014005E4F525F5267F01227FFF22E443
:1004A000FDFCC3ED9FEE6480F8EC6480985015E489
:1004B000FBFA0BBB00010AEB64904A70F50DBD001E
:1004C000010C80DE22759850438E01438E0475D74F
:1004D000E375D6FF438E10D2ACD2AF22120026FFB6
:1004E000600C1204FC740129F9E43AFA80EE2273DC
:1004F00074617274207570202E2E2E002000FDD2A3
:0E050000008F9922C2CCC2CD22AE23AF24229E
:00000001FF
