:10009300E4F508F50975CAFFF5C9F50874002508E4
:1000A300F582E43400F58374FFF074302508F5829B
:1000B300E43400F58374FFF00508E508B430DD7B14
:1000C300017A007900E4F50FF510F511FDFC12013A
:1000D300AF7B017A007930E4F50FF510F5117D015E
:1000E300FC1201AF05086309FF750D01750E00755C
:1000F3000F307510007511307B017A007900120101
:0A0103006E7F057E001201DE80DA37
:05021000C2CCC2CD22AA
:10000300851B82851A8312010DFFAB17AA18A91944
:10001300851B82851A8312010DFEE4FDEF30E70C88
:10002300EE30E708C2AFD2CCD2CD804DEF20E71D32
:10003300EE30E719C2AFD2CCD2CD0000C2CD000062
:1000430000000000000000C2CCD2AF8034EF30E7E4
:1000530019EE20E715C2AFD2CCD2CD0000C2CC003E
:1000630000000000000000008013C2AFD2CCD2CD4C
:100073000000000000000000000000C2CCC2CDD28E
:0F008300AFEF25E0FFEE25E0FE0DED6408708D78
:01009200224B
:1001DE00E4FDFCC3ED9FEE6480F8EC64809850154E
:1001EE00E4FBFA0BBB00010AEB64904A70F50DBDFF
:0501FE0000010C80DE91
:0102030022D8
:0601AF008B0A8A0B890C8B
:1001B500E4AE04AF05FC7D0312015C8F828E83E5FE
:1001C5000F12013A8F828E83A3E51012013A8F82B6
:0901D5008E83A3A3E51102013A97
:06016E008B0A8A0B890CCC
:10017400E4F512F513C3E5139511E5106480F8E571
:10018400126480985022850D17850E18850F1985E5
:10019400121A85131BAB0AAA0BA90C120003051330
:0B01A400E51370D1051280CD0202109F
:03000000020204F5
:0C020400787FE4F6D8FD75811B020093A2
:10010D00BB010CE58229F582E5833AF583E02250A7
:10011D0006E92582F8E622BBFE06E92582F8E222F1
:0D012D00E58229F582E5833AF583E493220B
:10013A00F8BB010DE58229F582E5833AF583E8F0FB
:10014A00225006E92582C8F622BBFE05E92582C8A7
:02015A00F2228F
:10015C00EF8DF0A4A8F0CF8CF0A428CE8DF0A42EB7
:02016C00FE2271
:00000001FF
