:100000000200EB759850438E01438E0475D7C67578
:10001000D6FF438E10D2ACD2AF222000FDD2008F8B
:02002000992223
:1000230002028BE4F508F509F50AF50BF50CF50D5D
:1000330012000375CAFFE4F5C9F50874002508F535
:1000430082E43400F58374FFF074302508F582E40C
:100053003400F58374FFF00508E508B430DD7BFF59
:100063007A0379E01203BEE4F508751101751200F5
:100073007513307514007515307B017A0079001201
:1000830003187F057E001203981203F28E0C8F0D66
:10009300E4F50AF50BC3E50B950DE50A950C50CA7B
:1000A3007B007A007909120359D3EF64809480406E
:1000B3002D74002508F582E43400F583E509F07416
:1000C300302508F582E43400F583E509F00508E5F9
:1000D30008C394304003E4F508AF0912001A050B76
:1000E300E50B70B1050A80AD787FE4F6D8FD758124
:1000F30026020132020026E493A3F8E493A340030B
:10010300F68001F208DFF48029E493A3F85407246E
:100113000CC8C333C4540F4420C8834004F456802E
:100123000146F6DFE4800B010204081020408090B2
:1001330003D1E47E019360BCA3FF543F30E509542F
:100143001FFEE493A360010ECF54C025E060A840D6
:10015300B8E493A3FAE493A3F8E493A3C8C582C8CD
:10016300CAC583CAF0A3C8C582C8CAC583CADFE9A2
:10017300DEE780BEBB010689828A83E0225002E764
:1001830022BBFE02E32289828A83E49322BB010C11
:10019300E58229F582E5833AF583E0225006E925D5
:1001A30082F8E622BBFE06E92582F8E222E58229EF
:1001B300F582E5833AF583E49322BB010689828ABB
:1001C30083F0225002F722BBFE01F322F8BB010D9C
:1001D300E58229F582E5833AF583E8F0225006E9C2
:1001E3002582C8F622BBFE05E92582C8F222EF8DDF
:1001F300F0A4A8F0CF8CF0A428CE8DF0A42EFE227C
:10020300851F82851E83120190FFAB1BAA1CA91DAB
:10021300851F82851E83120190FEE4FDC2AFEF307D
:10022300E70AEE30E706D2CCD2CD8047EF20E719BC
:10023300EE30E715D2CCD2CD0000C2CD00000000D5
:100243000000000000C2CC8030EF30E719EE20E759
:1002530015D2CCD2CD0000C2CC00000000000000BB
:100263000000C2CD8013D2CCD2CD0000000000002C
:100273000000000000C2CCC2CDEF25E0FFEE25E078
:10028300FED2AF0DBD089522C0E0C0F0C083C0828E
:10029300C0D075D000C000C001C002C003C004C0FC
:1002A30005C006C007309904C299C200309807C23E
:1002B30098AF991203F7D007D006D005D004D00326
:1002C300D002D001D000D0D0D082D083D0F0D0E003
:1002D30032C3E524947FE52394005036C3E5239489
:1002E30000402F74602522F58274003521F583EFD9
:1002F300F00524E524700205230522E5227002059A
:1003030021C3947FE52194004005E4F521F5227F84
:1003130001227FFF228B0E8A0F8910E4F516F51751
:10032300C3E5179515E5146480F8E51664809850C5
:100333002285111B85121C85131D85161E85171F0B
:10034300AB0EAA0FA9101202030517E51770D1050A
:100353001680CD0203EDD3E5249400E523940040F9
:100363003174602526F58274003525F583E012018A
:10037300BDE5241524700215230526E52670020524
:1003830025C3947FE52594004005E4F525F5267FF4
:1003930001227FFF22E4FDFCC3ED9FEE6480F8ECB5
:1003A3006480985015E4FBFA0BBB00010AEB6490E0
:1003B3004A70F50DBD00010C80DE22120177FF604B
:1003C3000C12001A740129F9E43AFA80EE22C100F2
:1003D3000223000002250000022100000073746163
:1003E3007274207570202E2E2E00C2CCC2CD22AE88
:0703F30023AF24220202D413
:00000001FF
