:10000000020134759850438E01438E0475D7C6752E
:10001000D6FF438E10D2ACD2AF222000FDD2008F8B
:02002000992223
:100023000202D4E4F521F522F526F527F528F52972
:10003300F52A12000375CAFFE4F5C9F521740025FA
:1000430021F582E43400F58374FFF074302521F543
:1000530082E43400F58374FFF00521E521B430DD3B
:100063007B017A007900E4F530F531F532FDFC12BD
:1000730003E17B017A007930E4F530F531F5327D27
:1000830001FC1203E17BFF7A047958120436752EC2
:1000930001752F007530307531007532307B017A70
:1000A3000079001203617F057E0012041012046AB6
:1000B3008E298F2AE4F527F528C3E528952AE52715
:1000C300952950CA7B007A0079261203A2D3EF64E4
:1000D300809480405274232522F8A6260522E52227
:1000E300C394034003E4F522E4F5217B017A00790C
:1000F30000E521FD7C0085233085243185253212DE
:1001030003E17B017A007930E521FD7C0085233012
:100113008524318525321203E10521E521C394109D
:1001230040C9AF2612001A0528E528708C052780E0
:1001330088787FE4F6D8FD75813C02017B020026B6
:10014300E493A3F8E493A34003F68001F208DFF4F9
:100153008029E493A3F85407240CC8C333C4540F71
:100163004420C8834004F456800146F6DFE4800B44
:100173000102040810204080900449E47E0193604A
:10018300BCA3FF543F30E509541FFEE493A3600171
:100193000ECF54C025E060A840B8E493A3FAE493DB
:1001A300A3F8E493A3C8C582C8CAC583CAF0A3C889
:1001B300C582C8CAC583CADFE9DEE780BEBB0106C4
:1001C30089828A83E0225002E722BBFE02E322896E
:1001D300828A83E49322BB010CE58229F582E583BD
:1001E3003AF583E0225006E92582F8E622BBFE06B3
:1001F300E92582F8E222E58229F582E5833AF5834F
:10020300E49322BB010689828A83F0225002F722FB
:10021300BBFE01F322F8BB010DE58229F582E583DC
:100223003AF583E8F0225006E92582C8F622BBFEA0
:1002330005E92582C8F222EF8DF0A4A8F0CF8CF057
:10024300A428CE8DF0A42EFE22853C82853B83120A
:1002530001D9FFAB38AA39A93A853C82853B831281
:1002630001D9FEE4FDC2AFEF30E70AEE30E706D274
:10027300CCD2CD8047EF20E719EE30E715D2CCD2B0
:10028300CD0000C2CD000000000000000000C2CC81
:100293008030EF30E719EE20E715D2CCD2CD000045
:1002A300C2CC000000000000000000C2CD8013D2C9
:1002B300CCD2CD0000000000000000000000C2CC42
:1002C300C2CDEF25E0FFEE25E0FED2AF0DBD0895D0
:1002D30022C0E0C0F0C083C082C0D075D000C0008F
:1002E300C001C002C003C004C005C006C0073099E6
:1002F30004C299C200309807C298AF9912046FD014
:1003030007D006D005D004D003D002D001D000D04E
:10031300D0D082D083D0F0D0E032C3E50B947FE518
:100323000A94005036C3E50A9400402F74602509EF
:10033300F58274003508F583EFF0050BE50B7002C9
:10034300050A0509E50970020508C3947FE50894C9
:10035300004005E4F508F5097F01227FFF228B2B7E
:100363008A2C892DE4F533F534C3E5349532E53130
:100373006480F8E5336480985022852E38852F39C0
:1003830085303A85333B85343CAB2BAA2CA92D12FF
:10039300024C0534E53470D1053380CD020465D3B6
:1003A300E50B9400E50A940040317460250DF58255
:1003B3007400350CF583E0120206E50B150B700291
:1003C300150A050DE50D7002050CC3947FE50C9429
:1003D300004005E4F50CF50D7F01227FFF228B2BF6
:1003E3008A2C892DE4AE04AF05FC7D0312023A8FFB
:1003F300828E83E5301202188F828E83A3E5311239
:1004030002188F828E83A3A3E532020218E4FDFC57
:10041300C3ED9FEE6480F8EC6480985015E4FBFA1A
:100423000BBB00010AEB64904A70F50DBD00010C93
:1004330080DE221201C0FF600C12001A740129F938
:10044300E43AFA80EE22C100020A0000020C000026
:1004530002080000007374617274207570202E2EE0
:0F0463002E00C2CCC2CD22AE0AAF0B2202031D67
:00000001FF
